{"abi":[{"type":"constructor","inputs":[],"stateMutability":"nonpayable"},{"type":"function","name":"DEFAULT_ADMIN_ROLE","inputs":[],"outputs":[{"name":"","type":"bytes32","internalType":"bytes32"}],"stateMutability":"view"},{"type":"function","name":"MINTER_ROLE","inputs":[],"outputs":[{"name":"","type":"bytes32","internalType":"bytes32"}],"stateMutability":"view"},{"type":"function","name":"MIN_STAKE","inputs":[],"outputs":[{"name":"","type":"uint256","internalType":"uint256"}],"stateMutability":"view"},{"type":"function","name":"SLASHER_ROLE","inputs":[],"outputs":[{"name":"","type":"bytes32","internalType":"bytes32"}],"stateMutability":"view"},{"type":"function","name":"allowance","inputs":[{"name":"owner","type":"address","internalType":"address"},{"name":"spender","type":"address","internalType":"address"}],"outputs":[{"name":"","type":"uint256","internalType":"uint256"}],"stateMutability":"view"},{"type":"function","name":"approve","inputs":[{"name":"spender","type":"address","internalType":"address"},{"name":"amount","type":"uint256","internalType":"uint256"}],"outputs":[{"name":"","type":"bool","internalType":"bool"}],"stateMutability":"nonpayable"},{"type":"function","name":"balanceOf","inputs":[{"name":"account","type":"address","internalType":"address"}],"outputs":[{"name":"","type":"uint256","internalType":"uint256"}],"stateMutability":"view"},{"type":"function","name":"decimals","inputs":[],"outputs":[{"name":"","type":"uint8","internalType":"uint8"}],"stateMutability":"view"},{"type":"function","name":"decreaseAllowance","inputs":[{"name":"spender","type":"address","internalType":"address"},{"name":"subtractedValue","type":"uint256","internalType":"uint256"}],"outputs":[{"name":"","type":"bool","internalType":"bool"}],"stateMutability":"nonpayable"},{"type":"function","name":"getRoleAdmin","inputs":[{"name":"role","type":"bytes32","internalType":"bytes32"}],"outputs":[{"name":"","type":"bytes32","internalType":"bytes32"}],"stateMutability":"view"},{"type":"function","name":"grantRole","inputs":[{"name":"role","type":"bytes32","internalType":"bytes32"},{"name":"account","type":"address","internalType":"address"}],"outputs":[],"stateMutability":"nonpayable"},{"type":"function","name":"hasMinimumStake","inputs":[{"name":"node","type":"address","internalType":"address"}],"outputs":[{"name":"","type":"bool","internalType":"bool"}],"stateMutability":"view"},{"type":"function","name":"hasRole","inputs":[{"name":"role","type":"bytes32","internalType":"bytes32"},{"name":"account","type":"address","internalType":"address"}],"outputs":[{"name":"","type":"bool","internalType":"bool"}],"stateMutability":"view"},{"type":"function","name":"increaseAllowance","inputs":[{"name":"spender","type":"address","internalType":"address"},{"name":"addedValue","type":"uint256","internalType":"uint256"}],"outputs":[{"name":"","type":"bool","internalType":"bool"}],"stateMutability":"nonpayable"},{"type":"function","name":"mint","inputs":[{"name":"to","type":"address","internalType":"address"},{"name":"amount","type":"uint256","internalType":"uint256"}],"outputs":[],"stateMutability":"nonpayable"},{"type":"function","name":"name","inputs":[],"outputs":[{"name":"","type":"string","internalType":"string"}],"stateMutability":"view"},{"type":"function","name":"renounceRole","inputs":[{"name":"role","type":"bytes32","internalType":"bytes32"},{"name":"account","type":"address","internalType":"address"}],"outputs":[],"stateMutability":"nonpayable"},{"type":"function","name":"revokeRole","inputs":[{"name":"role","type":"bytes32","internalType":"bytes32"},{"name":"account","type":"address","internalType":"address"}],"outputs":[],"stateMutability":"nonpayable"},{"type":"function","name":"slash","inputs":[{"name":"node","type":"address","internalType":"address"},{"name":"amount","type":"uint256","internalType":"uint256"}],"outputs":[],"stateMutability":"nonpayable"},{"type":"function","name":"stake","inputs":[{"name":"amount","type":"uint256","internalType":"uint256"}],"outputs":[],"stateMutability":"nonpayable"},{"type":"function","name":"stakedBalance","inputs":[{"name":"","type":"address","internalType":"address"}],"outputs":[{"name":"","type":"uint256","internalType":"uint256"}],"stateMutability":"view"},{"type":"function","name":"supportsInterface","inputs":[{"name":"interfaceId","type":"bytes4","internalType":"bytes4"}],"outputs":[{"name":"","type":"bool","internalType":"bool"}],"stateMutability":"view"},{"type":"function","name":"symbol","inputs":[],"outputs":[{"name":"","type":"string","internalType":"string"}],"stateMutability":"view"},{"type":"function","name":"totalSupply","inputs":[],"outputs":[{"name":"","type":"uint256","internalType":"uint256"}],"stateMutability":"view"},{"type":"function","name":"transfer","inputs":[{"name":"to","type":"address","internalType":"address"},{"name":"amount","type":"uint256","internalType":"uint256"}],"outputs":[{"name":"","type":"bool","internalType":"bool"}],"stateMutability":"nonpayable"},{"type":"function","name":"transferFrom","inputs":[{"name":"from","type":"address","internalType":"address"},{"name":"to","type":"address","internalType":"address"},{"name":"amount","type":"uint256","internalType":"uint256"}],"outputs":[{"name":"","type":"bool","internalType":"bool"}],"stateMutability":"nonpayable"},{"type":"function","name":"unstake","inputs":[{"name":"amount","type":"uint256","internalType":"uint256"}],"outputs":[],"stateMutability":"nonpayable"},{"type":"event","name":"Approval","inputs":[{"name":"owner","type":"address","indexed":true,"internalType":"address"},{"name":"spender","type":"address","indexed":true,"internalType":"address"},{"name":"value","type":"uint256","indexed":false,"internalType":"uint256"}],"anonymous":false},{"type":"event","name":"RoleAdminChanged","inputs":[{"name":"role","type":"bytes32","indexed":true,"internalType":"bytes32"},{"name":"previousAdminRole","type":"bytes32","indexed":true,"internalType":"bytes32"},{"name":"newAdminRole","type":"bytes32","indexed":true,"internalType":"bytes32"}],"anonymous":false},{"type":"event","name":"RoleGranted","inputs":[{"name":"role","type":"bytes32","indexed":true,"internalType":"bytes32"},{"name":"account","type":"address","indexed":true,"internalType":"address"},{"name":"sender","type":"address","indexed":true,"internalType":"address"}],"anonymous":false},{"type":"event","name":"RoleRevoked","inputs":[{"name":"role","type":"bytes32","indexed":true,"internalType":"bytes32"},{"name":"account","type":"address","indexed":true,"internalType":"address"},{"name":"sender","type":"address","indexed":true,"internalType":"address"}],"anonymous":false},{"type":"event","name":"Slashed","inputs":[{"name":"node","type":"address","indexed":true,"internalType":"address"},{"name":"amount","type":"uint256","indexed":false,"internalType":"uint256"}],"anonymous":false},{"type":"event","name":"Staked","inputs":[{"name":"node","type":"address","indexed":true,"internalType":"address"},{"name":"amount","type":"uint256","indexed":false,"internalType":"uint256"}],"anonymous":false},{"type":"event","name":"Transfer","inputs":[{"name":"from","type":"address","indexed":true,"internalType":"address"},{"name":"to","type":"address","indexed":true,"internalType":"address"},{"name":"value","type":"uint256","indexed":false,"internalType":"uint256"}],"anonymous":false},{"type":"event","name":"Unstaked","inputs":[{"name":"node","type":"address","indexed":true,"internalType":"address"},{"name":"amount","type":"uint256","indexed":false,"internalType":"uint256"}],"anonymous":false}],"bytecode":{"object":"0x60806040523480156200001157600080fd5b506040518060400160405280600c81526020016b20a496a227a7102a37b5b2b760a11b815250604051806040016040528060038152602001622227a760e91b81525081600390816200006491906200022d565b5060046200007382826200022d565b506200008591506000905033620000e3565b620000b17f9f2df0fed2c77648de5860a4cc508cd0818c85b8b8a1ab4ceeef8d981c8956a633620000e3565b620000dd7f12b42e8a160f6064dc959c6f251e3af0750ad213dbecf573b4710d67d6c28e3933620000e3565b620002f9565b60008281526005602090815260408083206001600160a01b038516845290915290205460ff16620001845760008281526005602090815260408083206001600160a01b03851684529091529020805460ff19166001179055620001433390565b6001600160a01b0316816001600160a01b0316837f2f8788117e7eff1d82e926ec794901d17c78024a50270940304540a733656f0d60405160405180910390a45b5050565b634e487b7160e01b600052604160045260246000fd5b600181811c90821680620001b357607f821691505b602082108103620001d457634e487b7160e01b600052602260045260246000fd5b50919050565b601f8211156200022857600081815260208120601f850160051c81016020861015620002035750805b601f850160051c820191505b8181101562000224578281556001016200020f565b5050505b505050565b81516001600160401b0381111562000249576200024962000188565b62000261816200025a84546200019e565b84620001da565b602080601f831160018114620002995760008415620002805750858301515b600019600386901b1c1916600185901b17855562000224565b600085815260208120601f198616915b82811015620002ca57888601518255948401946001909101908401620002a9565b5085821015620002e95787850151600019600388901b60f8161c191681555b5050505050600190811b01905550565b6116f280620003096000396000f3fe608060405234801561001057600080fd5b50600436106101a95760003560e01c80635095af64116100f9578063a457c2d711610097578063cb1c2b5c11610071578063cb1c2b5c146103ca578063d5391393146103da578063d547741f14610401578063dd62ed3e1461041457600080fd5b8063a457c2d714610391578063a694fc3a146103a4578063a9059cbb146103b757600080fd5b806370a08231116100d357806370a082311461034557806391d148541461036e57806395d89b4114610381578063a217fddf1461038957600080fd5b80635095af64146102c95780635c1c0710146102f0578063602172671461032557600080fd5b8063248a9ca311610166578063313ce56711610140578063313ce5671461028157806336568abe1461029057806339509351146102a357806340c10f19146102b657600080fd5b8063248a9ca3146102385780632e17de781461025b5780632f2ff15d1461026e57600080fd5b806301ffc9a7146101ae57806302fb4d85146101d657806306fdde03146101eb578063095ea7b31461020057806318160ddd1461021357806323b872dd14610225575b600080fd5b6101c16101bc3660046113b3565b610427565b60405190151581526020015b60405180910390f35b6101e96101e43660046113f9565b61045e565b005b6101f36105e4565b6040516101cd9190611447565b6101c161020e3660046113f9565b610676565b6002545b6040519081526020016101cd565b6101c161023336600461147a565b61068e565b6102176102463660046114b6565b60009081526005602052604090206001015490565b6101e96102693660046114b6565b6106b2565b6101e961027c3660046114cf565b610807565b604051601281526020016101cd565b6101e961029e3660046114cf565b610831565b6101c16102b13660046113f9565b6108af565b6101e96102c43660046113f9565b6108d1565b6102177f12b42e8a160f6064dc959c6f251e3af0750ad213dbecf573b4710d67d6c28e3981565b6101c16102fe3660046114fb565b6001600160a01b0316600090815260066020526040902054683635c9adc5dea00000111590565b6102176103333660046114fb565b60066020526000908152604090205481565b6102176103533660046114fb565b6001600160a01b031660009081526020819052604090205490565b6101c161037c3660046114cf565b610974565b6101f361099f565b610217600081565b6101c161039f3660046113f9565b6109ae565b6101e96103b23660046114b6565b610a29565b6101c16103c53660046113f9565b610b1a565b610217683635c9adc5dea0000081565b6102177f9f2df0fed2c77648de5860a4cc508cd0818c85b8b8a1ab4ceeef8d981c8956a681565b6101e961040f3660046114cf565b610b28565b610217610422366004611516565b610b4d565b60006001600160e01b03198216637965db0b60e01b148061045857506301ffc9a760e01b6001600160e01b03198316145b92915050565b7f12b42e8a160f6064dc959c6f251e3af0750ad213dbecf573b4710d67d6c28e3961048881610b78565b6001600160a01b0383166104dc5760405162461bcd60e51b8152602060048201526016602482015275444f4e546f6b656e3a207a65726f206164647265737360501b60448201526064015b60405180910390fd5b600082116104fc5760405162461bcd60e51b81526004016104d390611540565b6001600160a01b0383166000908152600660205260409020548211156105645760405162461bcd60e51b815260206004820152601d60248201527f444f4e546f6b656e3a20736c6173682065786365656473207374616b6500000060448201526064016104d3565b6001600160a01b0383166000908152600660205260408120805484929061058c90849061158d565b9091555061059c90503083610b85565b826001600160a01b03167f4ed05e9673c26d2ed44f7ef6a7f2942df0ee3b5e1e17db4b99f9dcd261a339cd836040516105d791815260200190565b60405180910390a2505050565b6060600380546105f3906115a0565b80601f016020809104026020016040519081016040528092919081815260200182805461061f906115a0565b801561066c5780601f106106415761010080835404028352916020019161066c565b820191906000526020600020905b81548152906001019060200180831161064f57829003601f168201915b5050505050905090565b600033610684818585610cb7565b5060019392505050565b60003361069c858285610ddb565b6106a7858585610e55565b506001949350505050565b600081116106d25760405162461bcd60e51b81526004016104d390611540565b33600090815260066020526040902054818110156107405760405162461bcd60e51b815260206004820152602560248201527f444f4e546f6b656e3a20696e73756666696369656e74207374616b65642062616044820152646c616e636560d81b60648201526084016104d3565b600061074c838361158d565b905080156107b757683635c9adc5dea000008110156107b75760405162461bcd60e51b815260206004820152602160248201527f444f4e546f6b656e3a2072656d61696e696e672062656c6f77206d696e696d756044820152606d60f81b60648201526084016104d3565b3360008181526006602052604090208290556107d590309085610e55565b60405183815233907f0f5bb82176feb1b5e747e28471aa92156a04d9f3ab9f45f28e2d704232b93f75906020016105d7565b60008281526005602052604090206001015461082281610b78565b61082c8383610ff9565b505050565b6001600160a01b03811633146108a15760405162461bcd60e51b815260206004820152602f60248201527f416363657373436f6e74726f6c3a2063616e206f6e6c792072656e6f756e636560448201526e103937b632b9903337b91039b2b63360891b60648201526084016104d3565b6108ab828261107f565b5050565b6000336106848185856108c28383610b4d565b6108cc91906115da565b610cb7565b7f9f2df0fed2c77648de5860a4cc508cd0818c85b8b8a1ab4ceeef8d981c8956a66108fb81610b78565b6001600160a01b03831661094a5760405162461bcd60e51b8152602060048201526016602482015275444f4e546f6b656e3a207a65726f206164647265737360501b60448201526064016104d3565b6000821161096a5760405162461bcd60e51b81526004016104d390611540565b61082c83836110e6565b60009182526005602090815260408084206001600160a01b0393909316845291905290205460ff1690565b6060600480546105f3906115a0565b600033816109bc8286610b4d565b905083811015610a1c5760405162461bcd60e51b815260206004820152602560248201527f45524332303a2064656372656173656420616c6c6f77616e63652062656c6f77604482015264207a65726f60d81b60648201526084016104d3565b6106a78286868403610cb7565b60008111610a495760405162461bcd60e51b81526004016104d390611540565b33600090815260066020526040812054610a649083906115da565b9050683635c9adc5dea00000811015610abf5760405162461bcd60e51b815260206004820152601d60248201527f444f4e546f6b656e3a2062656c6f77206d696e696d756d207374616b6500000060448201526064016104d3565b610aca333084610e55565b3360008181526006602052604090819020839055517f9e71bc8eea02a63969f509818f2dafb9254532904319f9dbda79b67bd34a5f3d90610b0e9085815260200190565b60405180910390a25050565b600033610684818585610e55565b600082815260056020526040902060010154610b4381610b78565b61082c838361107f565b6001600160a01b03918216600090815260016020908152604080832093909416825291909152205490565b610b8281336111a5565b50565b6001600160a01b038216610be55760405162461bcd60e51b815260206004820152602160248201527f45524332303a206275726e2066726f6d20746865207a65726f206164647265736044820152607360f81b60648201526084016104d3565b6001600160a01b03821660009081526020819052604090205481811015610c595760405162461bcd60e51b815260206004820152602260248201527f45524332303a206275726e20616d6f756e7420657863656564732062616c616e604482015261636560f01b60648201526084016104d3565b6001600160a01b0383166000818152602081815260408083208686039055600280548790039055518581529192917fddf252ad1be2c89b69c2b068fc378daa952ba7f163c4a11628f55a4df523b3ef910160405180910390a3505050565b6001600160a01b038316610d195760405162461bcd60e51b8152602060048201526024808201527f45524332303a20617070726f76652066726f6d20746865207a65726f206164646044820152637265737360e01b60648201526084016104d3565b6001600160a01b038216610d7a5760405162461bcd60e51b815260206004820152602260248201527f45524332303a20617070726f766520746f20746865207a65726f206164647265604482015261737360f01b60648201526084016104d3565b6001600160a01b0383811660008181526001602090815260408083209487168084529482529182902085905590518481527f8c5be1e5ebec7d5bd14f71427d1e84f3dd0314c0f7b2291e5b200ac8c7c3b925910160405180910390a3505050565b6000610de78484610b4d565b90506000198114610e4f5781811015610e425760405162461bcd60e51b815260206004820152601d60248201527f45524332303a20696e73756666696369656e7420616c6c6f77616e636500000060448201526064016104d3565b610e4f8484848403610cb7565b50505050565b6001600160a01b038316610eb95760405162461bcd60e51b815260206004820152602560248201527f45524332303a207472616e736665722066726f6d20746865207a65726f206164604482015264647265737360d81b60648201526084016104d3565b6001600160a01b038216610f1b5760405162461bcd60e51b815260206004820152602360248201527f45524332303a207472616e7366657220746f20746865207a65726f206164647260448201526265737360e81b60648201526084016104d3565b6001600160a01b03831660009081526020819052604090205481811015610f935760405162461bcd60e51b815260206004820152602660248201527f45524332303a207472616e7366657220616d6f756e7420657863656564732062604482015265616c616e636560d01b60648201526084016104d3565b6001600160a01b03848116600081815260208181526040808320878703905593871680835291849020805487019055925185815290927fddf252ad1be2c89b69c2b068fc378daa952ba7f163c4a11628f55a4df523b3ef910160405180910390a3610e4f565b6110038282610974565b6108ab5760008281526005602090815260408083206001600160a01b03851684529091529020805460ff1916600117905561103b3390565b6001600160a01b0316816001600160a01b0316837f2f8788117e7eff1d82e926ec794901d17c78024a50270940304540a733656f0d60405160405180910390a45050565b6110898282610974565b156108ab5760008281526005602090815260408083206001600160a01b0385168085529252808320805460ff1916905551339285917ff6391f5c32d9c69d2a47ea670b442974b53935d1edc7fd64eb21e047a839171b9190a45050565b6001600160a01b03821661113c5760405162461bcd60e51b815260206004820152601f60248201527f45524332303a206d696e7420746f20746865207a65726f20616464726573730060448201526064016104d3565b806002600082825461114e91906115da565b90915550506001600160a01b038216600081815260208181526040808320805486019055518481527fddf252ad1be2c89b69c2b068fc378daa952ba7f163c4a11628f55a4df523b3ef910160405180910390a35050565b6111af8282610974565b6108ab576111bc816111fe565b6111c7836020611210565b6040516020016111d89291906115ed565b60408051601f198184030181529082905262461bcd60e51b82526104d391600401611447565b60606104586001600160a01b03831660145b6060600061121f836002611662565b61122a9060026115da565b67ffffffffffffffff81111561124257611242611679565b6040519080825280601f01601f19166020018201604052801561126c576020820181803683370190505b509050600360fc1b816000815181106112875761128761168f565b60200101906001600160f81b031916908160001a905350600f60fb1b816001815181106112b6576112b661168f565b60200101906001600160f81b031916908160001a90535060006112da846002611662565b6112e59060016115da565b90505b600181111561135d576f181899199a1a9b1b9c1cb0b131b232b360811b85600f16601081106113195761131961168f565b1a60f81b82828151811061132f5761132f61168f565b60200101906001600160f81b031916908160001a90535060049490941c93611356816116a5565b90506112e8565b5083156113ac5760405162461bcd60e51b815260206004820181905260248201527f537472696e67733a20686578206c656e67746820696e73756666696369656e7460448201526064016104d3565b9392505050565b6000602082840312156113c557600080fd5b81356001600160e01b0319811681146113ac57600080fd5b80356001600160a01b03811681146113f457600080fd5b919050565b6000806040838503121561140c57600080fd5b611415836113dd565b946020939093013593505050565b60005b8381101561143e578181015183820152602001611426565b50506000910152565b6020815260008251806020840152611466816040850160208701611423565b601f01601f19169190910160400192915050565b60008060006060848603121561148f57600080fd5b611498846113dd565b92506114a6602085016113dd565b9150604084013590509250925092565b6000602082840312156114c857600080fd5b5035919050565b600080604083850312156114e257600080fd5b823591506114f2602084016113dd565b90509250929050565b60006020828403121561150d57600080fd5b6113ac826113dd565b6000806040838503121561152957600080fd5b611532836113dd565b91506114f2602084016113dd565b60208082526018908201527f444f4e546f6b656e3a20616d6f756e74206973207a65726f0000000000000000604082015260600190565b634e487b7160e01b600052601160045260246000fd5b8181038181111561045857610458611577565b600181811c908216806115b457607f821691505b6020821081036115d457634e487b7160e01b600052602260045260246000fd5b50919050565b8082018082111561045857610458611577565b7f416363657373436f6e74726f6c3a206163636f756e7420000000000000000000815260008351611625816017850160208801611423565b7001034b99036b4b9b9b4b733903937b6329607d1b6017918401918201528351611656816028840160208801611423565b01602801949350505050565b808202811582820484141761045857610458611577565b634e487b7160e01b600052604160045260246000fd5b634e487b7160e01b600052603260045260246000fd5b6000816116b4576116b4611577565b50600019019056fea26469706673582212207a13e98bb011a9de384c5e40a3a19b4cf257a14e57a6dca17e0431cb454a0c9064736f6c63430008130033","linkReferences":{}},"methodIdentifiers":{"DEFAULT_ADMIN_ROLE()":"a217fddf","MINTER_ROLE()":"d5391393","MIN_STAKE()":"cb1c2b5c","SLASHER_ROLE()":"5095af64","allowance(address,address)":"dd62ed3e","approve(address,uint256)":"095ea7b3","balanceOf(address)":"70a08231","decimals()":"313ce567","decreaseAllowance(address,uint256)":"a457c2d7","getRoleAdmin(bytes32)":"248a9ca3","grantRole(bytes32,address)":"2f2ff15d","hasMinimumStake(address)":"5c1c0710","hasRole(bytes32,address)":"91d14854","increaseAllowance(address,uint256)":"39509351","mint(address,uint256)":"40c10f19","name()":"06fdde03","renounceRole(bytes32,address)":"36568abe","revokeRole(bytes32,address)":"d547741f","slash(address,uint256)":"02fb4d85","stake(uint256)":"a694fc3a","stakedBalance(address)":"60217267","supportsInterface(bytes4)":"01ffc9a7","symbol()":"95d89b41","totalSupply()":"18160ddd","transfer(address,uint256)":"a9059cbb","transferFrom(address,address,uint256)":"23b872dd","unstake(uint256)":"2e17de78"},"id":34}