{"abi":[{"type":"constructor","inputs":[],"stateMutability":"nonpayable"},{"type":"function","name":"getHistoryEntry","inputs":[{"name":"asset","type":"string","internalType":"string"},{"name":"index","type":"uint256","internalType":"uint256"}],"outputs":[{"name":"price","type":"uint256","internalType":"uint256"},{"name":"confidence","type":"uint8","internalType":"uint8"},{"name":"timestamp","type":"uint256","internalType":"uint256"},{"name":"nodesUsed","type":"uint8","internalType":"uint8"},{"name":"nodesRejected","type":"uint8","internalType":"uint8"},{"name":"roundId","type":"uint256","internalType":"uint256"}],"stateMutability":"view"},{"type":"function","name":"getHistoryLength","inputs":[{"name":"asset","type":"string","internalType":"string"}],"outputs":[{"name":"","type":"uint256","internalType":"uint256"}],"stateMutability":"view"},{"type":"function","name":"getLatestPrice","inputs":[{"name":"asset","type":"string","internalType":"string"}],"outputs":[{"name":"price","type":"uint256","internalType":"uint256"},{"name":"confidence","type":"uint8","internalType":"uint8"},{"name":"timestamp","type":"uint256","internalType":"uint256"}],"stateMutability":"view"},{"type":"function","name":"owner","inputs":[],"outputs":[{"name":"","type":"address","internalType":"address"}],"stateMutability":"view"},{"type":"function","name":"renounceOwnership","inputs":[],"outputs":[],"stateMutability":"nonpayable"},{"type":"function","name":"roundCounter","inputs":[],"outputs":[{"name":"","type":"uint256","internalType":"uint256"}],"stateMutability":"view"},{"type":"function","name":"transferOwnership","inputs":[{"name":"newOwner","type":"address","internalType":"address"}],"outputs":[],"stateMutability":"nonpayable"},{"type":"function","name":"updatePrice","inputs":[{"name":"asset","type":"string","internalType":"string"},{"name":"price","type":"uint256","internalType":"uint256"},{"name":"confidence","type":"uint8","internalType":"uint8"},{"name":"nodesUsed","type":"uint8","internalType":"uint8"},{"name":"nodesRejected","type":"uint8","internalType":"uint8"}],"outputs":[],"stateMutability":"nonpayable"},{"type":"event","name":"OwnershipTransferred","inputs":[{"name":"previousOwner","type":"address","indexed":true,"internalType":"address"},{"name":"newOwner","type":"address","indexed":true,"internalType":"address"}],"anonymous":false},{"type":"event","name":"PriceUpdated","inputs":[{"name":"asset","type":"string","indexed":true,"internalType":"string"},{"name":"price","type":"uint256","indexed":false,"internalType":"uint256"},{"name":"confidence","type":"uint8","indexed":false,"internalType":"uint8"},{"name":"nodesUsed","type":"uint8","indexed":false,"internalType":"uint8"},{"name":"nodesRejected","type":"uint8","indexed":false,"internalType":"uint8"},{"name":"timestamp","type":"uint256","indexed":false,"internalType":"uint256"},{"name":"roundId","type":"uint256","indexed":false,"internalType":"uint256"}],"anonymous":false}],"bytecode":{"object":"0x608060405234801561001057600080fd5b5061001a3361001f565b61006f565b600080546001600160a01b038381166001600160a01b0319831681178455604051919092169283917f8be0079c531659141344cd1fd0a4f28419497f9722a3daafe3b4186f6b6457e09190a35050565b61097d8061007e6000396000f3fe608060405234801561001057600080fd5b50600436106100885760003560e01c8063e662efeb1161005b578063e662efeb14610111578063f2fde38b14610132578063f66a1b7114610145578063febc14b11461017557600080fd5b806306aee6e61461008d578063715018a6146100d95780638da5cb5b146100e35780639c366787146100fe575b600080fd5b6100a061009b366004610794565b61017e565b6040805196875260ff95861660208801528601939093529083166060850152909116608083015260a082015260c0015b60405180910390f35b6100e161028a565b005b6000546040516001600160a01b0390911681526020016100d0565b6100e161010c3660046107f6565b61029e565b61012461011f366004610873565b610516565b6040519081526020016100d0565b6100e16101403660046108b5565b610543565b610158610153366004610873565b6105bc565b6040805193845260ff9092166020840152908201526060016100d0565b61012460025481565b600080600080600080600189896040516101999291906108e5565b90815260405190819003602001902054871061020c5760405162461bcd60e51b815260206004820152602760248201527f4f7261636c65436f72653a20686973746f727920696e646578206f7574206f6660448201526620626f756e647360c81b60648201526084015b60405180910390fd5b600060018a8a6040516102209291906108e5565b9081526020016040518091039020888154811061023f5761023f6108f5565b600091825260209091206005909102018054600182015460028301546003840154600490940154929e60ff9283169e50909c508184169b506101009093041698509650945050505050565b6102926106a1565b61029c60006106fb565b565b6102a66106a1565b846102f35760405162461bcd60e51b815260206004820152601a60248201527f4f7261636c65436f72653a2061737365742072657175697265640000000000006044820152606401610203565b600084116103435760405162461bcd60e51b815260206004820152601960248201527f4f7261636c65436f72653a20696e76616c6964207072696365000000000000006044820152606401610203565b60648360ff1611156103975760405162461bcd60e51b815260206004820152601c60248201527f4f7261636c65436f72653a20636f6e666964656e6365203e20313030000000006044820152606401610203565b6001600260008282546103aa9190610921565b90915550506040805160c08101825285815260ff8086166020830152428284015284811660608301528316608082015260025460a082015290516001906103f490899089906108e5565b908152604080519182900360209081018320805460018181018355600092835291839020865160059092020190815591850151908201805460ff92831660ff199091161790559184015160028201556060840151600382018054608087015185166101000261ffff1990911692909416919091179290921790915560a083015160049091015561048790889088906108e5565b6040805191829003822083516020850151606086015160808701519487015160a088015194967f203cbced0c0b01a3f5443aaf47e17cfa2f10c2728feb862e11ed7b9215d967a1966105059690929195865260ff9485166020870152928416604086015292166060840152608083019190915260a082015260c00190565b60405180910390a250505050505050565b60006001838360405161052a9291906108e5565b9081526040519081900360200190205490505b92915050565b61054b6106a1565b6001600160a01b0381166105b05760405162461bcd60e51b815260206004820152602660248201527f4f776e61626c653a206e6577206f776e657220697320746865207a65726f206160448201526564647265737360d01b6064820152608401610203565b6105b9816106fb565b50565b600080600080600186866040516105d49291906108e5565b908152604051908190036020019020549050806106335760405162461bcd60e51b815260206004820152601d60248201527f4f7261636c65436f72653a206e6f206461746120666f722061737365740000006044820152606401610203565b6000600187876040516106479291906108e5565b908152604051908190036020019020610661600184610934565b81548110610671576106716108f5565b6000918252602090912060059091020180546001820154600290920154909960ff90921698509650945050505050565b6000546001600160a01b0316331461029c5760405162461bcd60e51b815260206004820181905260248201527f4f776e61626c653a2063616c6c6572206973206e6f7420746865206f776e65726044820152606401610203565b600080546001600160a01b038381166001600160a01b0319831681178455604051919092169283917f8be0079c531659141344cd1fd0a4f28419497f9722a3daafe3b4186f6b6457e09190a35050565b60008083601f84011261075d57600080fd5b50813567ffffffffffffffff81111561077557600080fd5b60208301915083602082850101111561078d57600080fd5b9250929050565b6000806000604084860312156107a957600080fd5b833567ffffffffffffffff8111156107c057600080fd5b6107cc8682870161074b565b909790965060209590950135949350505050565b803560ff811681146107f157600080fd5b919050565b60008060008060008060a0878903121561080f57600080fd5b863567ffffffffffffffff81111561082657600080fd5b61083289828a0161074b565b9097509550506020870135935061084b604088016107e0565b9250610859606088016107e0565b9150610867608088016107e0565b90509295509295509295565b6000806020838503121561088657600080fd5b823567ffffffffffffffff81111561089d57600080fd5b6108a98582860161074b565b90969095509350505050565b6000602082840312156108c757600080fd5b81356001600160a01b03811681146108de57600080fd5b9392505050565b8183823760009101908152919050565b634e487b7160e01b600052603260045260246000fd5b634e487b7160e01b600052601160045260246000fd5b8082018082111561053d5761053d61090b565b8181038181111561053d5761053d61090b56fea2646970667358221220bce1e6ee66f3a614b152c387c85460c66a9fef528761764e367a4404e8520a2964736f6c63430008130033","linkReferences":{}},"methodIdentifiers":{"getHistoryEntry(string,uint256)":"06aee6e6","getHistoryLength(string)":"e662efeb","getLatestPrice(string)":"f66a1b71","owner()":"8da5cb5b","renounceOwnership()":"715018a6","roundCounter()":"febc14b1","transferOwnership(address)":"f2fde38b","updatePrice(string,uint256,uint8,uint8,uint8)":"9c366787"},"id":36}