{"abi":[{"type":"constructor","inputs":[],"stateMutability":"nonpayable"},{"type":"function","name":"DEFAULT_ADMIN_ROLE","inputs":[],"outputs":[{"name":"","type":"bytes32","internalType":"bytes32"}],"stateMutability":"view"},{"type":"function","name":"MAX_REPUTATION","inputs":[],"outputs":[{"name":"","type":"uint256","internalType":"uint256"}],"stateMutability":"view"},{"type":"function","name":"REGISTRY_ADMIN_ROLE","inputs":[],"outputs":[{"name":"","type":"bytes32","internalType":"bytes32"}],"stateMutability":"view"},{"type":"function","name":"STARTING_REPUTATION","inputs":[],"outputs":[{"name":"","type":"uint256","internalType":"uint256"}],"stateMutability":"view"},{"type":"function","name":"deactivateNode","inputs":[{"name":"node","type":"address","internalType":"address"}],"outputs":[],"stateMutability":"nonpayable"},{"type":"function","name":"getActiveNodes","inputs":[],"outputs":[{"name":"","type":"address[]","internalType":"address[]"}],"stateMutability":"view"},{"type":"function","name":"getNode","inputs":[{"name":"node","type":"address","internalType":"address"}],"outputs":[{"name":"name","type":"string","internalType":"string"},{"name":"reputation","type":"uint256","internalType":"uint256"},{"name":"totalSubmissions","type":"uint256","internalType":"uint256"},{"name":"flaggedSubmissions","type":"uint256","internalType":"uint256"},{"name":"isActive","type":"bool","internalType":"bool"},{"name":"registeredAt","type":"uint256","internalType":"uint256"}],"stateMutability":"view"},{"type":"function","name":"getRegisteredNodeCount","inputs":[],"outputs":[{"name":"","type":"uint256","internalType":"uint256"}],"stateMutability":"view"},{"type":"function","name":"getRoleAdmin","inputs":[{"name":"role","type":"bytes32","internalType":"bytes32"}],"outputs":[{"name":"","type":"bytes32","internalType":"bytes32"}],"stateMutability":"view"},{"type":"function","name":"grantRole","inputs":[{"name":"role","type":"bytes32","internalType":"bytes32"},{"name":"account","type":"address","internalType":"address"}],"outputs":[],"stateMutability":"nonpayable"},{"type":"function","name":"hasRole","inputs":[{"name":"role","type":"bytes32","internalType":"bytes32"},{"name":"account","type":"address","internalType":"address"}],"outputs":[{"name":"","type":"bool","internalType":"bool"}],"stateMutability":"view"},{"type":"function","name":"isRegistered","inputs":[{"name":"node","type":"address","internalType":"address"}],"outputs":[{"name":"","type":"bool","internalType":"bool"}],"stateMutability":"view"},{"type":"function","name":"registerNode","inputs":[{"name":"node","type":"address","internalType":"address"},{"name":"name","type":"string","internalType":"string"}],"outputs":[],"stateMutability":"nonpayable"},{"type":"function","name":"renounceRole","inputs":[{"name":"role","type":"bytes32","internalType":"bytes32"},{"name":"account","type":"address","internalType":"address"}],"outputs":[],"stateMutability":"nonpayable"},{"type":"function","name":"revokeRole","inputs":[{"name":"role","type":"bytes32","internalType":"bytes32"},{"name":"account","type":"address","internalType":"address"}],"outputs":[],"stateMutability":"nonpayable"},{"type":"function","name":"supportsInterface","inputs":[{"name":"interfaceId","type":"bytes4","internalType":"bytes4"}],"outputs":[{"name":"","type":"bool","internalType":"bool"}],"stateMutability":"view"},{"type":"function","name":"updateReputation","inputs":[{"name":"node","type":"address","internalType":"address"},{"name":"newReputation","type":"uint256","internalType":"uint256"},{"name":"wasFlagged","type":"bool","internalType":"bool"}],"outputs":[],"stateMutability":"nonpayable"},{"type":"event","name":"NodeDeactivated","inputs":[{"name":"node","type":"address","indexed":true,"internalType":"address"},{"name":"timestamp","type":"uint256","indexed":false,"internalType":"uint256"}],"anonymous":false},{"type":"event","name":"NodeRegistered","inputs":[{"name":"node","type":"address","indexed":true,"internalType":"address"},{"name":"name","type":"string","indexed":false,"internalType":"string"},{"name":"startingReputation","type":"uint256","indexed":false,"internalType":"uint256"},{"name":"registeredAt","type":"uint256","indexed":false,"internalType":"uint256"}],"anonymous":false},{"type":"event","name":"ReputationUpdated","inputs":[{"name":"node","type":"address","indexed":true,"internalType":"address"},{"name":"previousReputation","type":"uint256","indexed":false,"internalType":"uint256"},{"name":"newReputation","type":"uint256","indexed":false,"internalType":"uint256"},{"name":"totalSubmissions","type":"uint256","indexed":false,"internalType":"uint256"},{"name":"flaggedSubmissions","type":"uint256","indexed":false,"internalType":"uint256"}],"anonymous":false},{"type":"event","name":"RoleAdminChanged","inputs":[{"name":"role","type":"bytes32","indexed":true,"internalType":"bytes32"},{"name":"previousAdminRole","type":"bytes32","indexed":true,"internalType":"bytes32"},{"name":"newAdminRole","type":"bytes32","indexed":true,"internalType":"bytes32"}],"anonymous":false},{"type":"event","name":"RoleGranted","inputs":[{"name":"role","type":"bytes32","indexed":true,"internalType":"bytes32"},{"name":"account","type":"address","indexed":true,"internalType":"address"},{"name":"sender","type":"address","indexed":true,"internalType":"address"}],"anonymous":false},{"type":"event","name":"RoleRevoked","inputs":[{"name":"role","type":"bytes32","indexed":true,"internalType":"bytes32"},{"name":"account","type":"address","indexed":true,"internalType":"address"},{"name":"sender","type":"address","indexed":true,"internalType":"address"}],"anonymous":false}],"bytecode":{"object":"0x608060405234801561001057600080fd5b5061001c60003361004b565b6100467fbb28eb1a0cfabcecf96003fab466159bc2e051e49d79baf049890044e90724403361004b565b6100ea565b6000828152602081815260408083206001600160a01b038516845290915290205460ff166100e6576000828152602081815260408083206001600160a01b03851684529091529020805460ff191660011790556100a53390565b6001600160a01b0316816001600160a01b0316837f2f8788117e7eff1d82e926ec794901d17c78024a50270940304540a733656f0d60405160405180910390a45b5050565b611434806100f96000396000f3fe608060405234801561001057600080fd5b506004361061010b5760003560e01c806391d14854116100a2578063bf584c4b11610071578063bf584c4b1461021d578063c3c5a54714610232578063d213c0f21461025e578063d547741f14610267578063ec604e461461027a57600080fd5b806391d14854146101ca5780639d209048146101dd578063a217fddf14610202578063bb9b342d1461020a57600080fd5b80632f2ff15d116100de5780632f2ff15d1461017a57806336568abe1461018f57806365814455146101a25780636b51e919146101b557600080fd5b806301ffc9a714610110578063248a9ca31461013857806329173a92146101695780632c395bd214610171575b600080fd5b61012361011e366004610ea6565b61028d565b60405190151581526020015b60405180910390f35b61015b610146366004610ed0565b60009081526020819052604090206001015490565b60405190815260200161012f565b60035461015b565b61015b6102bc81565b61018d610188366004610f05565b6102c4565b005b61018d61019d366004610f05565b6102ee565b61018d6101b0366004610f31565b610371565b6101bd61048d565b60405161012f9190610f4c565b6101236101d8366004610f05565b6105fa565b6101f06101eb366004610f31565b610623565b60405161012f96959493929190610fe9565b61015b600081565b61018d610218366004611027565b610747565b61015b6000805160206113df83398151915281565b610123610240366004610f31565b6001600160a01b031660009081526002602052604090205460ff1690565b61015b6103e881565b61018d610275366004610f05565b6109fb565b61018d6102883660046110aa565b610a20565b60006001600160e01b03198216637965db0b60e01b14806102be57506301ffc9a760e01b6001600160e01b03198316145b92915050565b6000828152602081905260409020600101546102df81610ba2565b6102e98383610baf565b505050565b6001600160a01b03811633146103635760405162461bcd60e51b815260206004820152602f60248201527f416363657373436f6e74726f6c3a2063616e206f6e6c792072656e6f756e636560448201526e103937b632b9903337b91039b2b63360891b60648201526084015b60405180910390fd5b61036d8282610c33565b5050565b6000805160206113df83398151915261038981610ba2565b6001600160a01b03821660009081526002602052604090205460ff166103c15760405162461bcd60e51b815260040161035a906110ef565b6001600160a01b03821660009081526001602052604090206004015460ff1661042c5760405162461bcd60e51b815260206004820181905260248201527f4f7261636c6552656769737472793a20616c726561647920696e616374697665604482015260640161035a565b6001600160a01b03821660008181526001602052604090819020600401805460ff19169055517fb025597a1255215c1fdc27d2e048dbeee3526419f64f4f07d36237542e4aaa6c906104819042815260200190565b60405180910390a25050565b60035460609060009081905b808210156105085760016000600384815481106104b8576104b8611132565b60009182526020808320909101546001600160a01b0316835282019290925260400190206004015460ff16156104f6576104f360018461115e565b92505b8161050081611171565b925050610499565b60008367ffffffffffffffff8111156105235761052361118a565b60405190808252806020026020018201604052801561054c578160200160208202803683370190505b50905060008093505b828410156105f15760006003858154811061057257610572611132565b60009182526020808320909101546001600160a01b0316808352600190915260409091206004015490915060ff16156105de57808383815181106105b8576105b8611132565b6001600160a01b03909216602092830291909101909101526105db60018361115e565b91505b50836105e981611171565b945050610555565b50949350505050565b6000918252602082815260408084206001600160a01b0393909316845291905290205460ff1690565b6001600160a01b03811660009081526002602052604081205460609190819081908190819060ff166106675760405162461bcd60e51b815260040161035a906110ef565b6001600160a01b03871660009081526001602081905260409091209081015460028201546003830154600484015460058501548554869594939260ff16919086906106b1906111a0565b80601f01602080910402602001604051908101604052809291908181526020018280546106dd906111a0565b801561072a5780601f106106ff5761010080835404028352916020019161072a565b820191906000526020600020905b81548152906001019060200180831161070d57829003601f168201915b505050505095509650965096509650965096505091939550919395565b6000805160206113df83398151915261075f81610ba2565b6001600160a01b0384166107b55760405162461bcd60e51b815260206004820152601c60248201527f4f7261636c6552656769737472793a207a65726f206164647265737300000000604482015260640161035a565b6001600160a01b03841660009081526002602052604090205460ff16156108295760405162461bcd60e51b815260206004820152602260248201527f4f7261636c6552656769737472793a20616c7265616479207265676973746572604482015261195960f21b606482015260840161035a565b816108765760405162461bcd60e51b815260206004820152601d60248201527f4f7261636c6552656769737472793a206e616d65207265717569726564000000604482015260640161035a565b6040518060c0016040528084848080601f016020809104026020016040519081016040528093929190818152602001838380828437600092018290525093855250506102bc6020808501919091526040808501849052606085018490526001608086018190524260a0909601959095526001600160a01b038a1684529390525020815181906109059082611228565b506020828101516001808401919091556040808501516002808601919091556060860151600380870191909155608087015160048701805491151560ff1992831617905560a0909701516005909601959095556001600160a01b038a166000818152919094528181208054909616831790955583549182018455929093527fc2575a0e9e593c00f959f8c92f12db2869c3395a3b0502d05e2516446f71f85b90920180546001600160a01b03191683179055517ff848331a8f5de76ec7a3fa83294f97f5113b398a6898b2d62529a8d513c81673906109ed90869086906102bc9042906112e8565b60405180910390a250505050565b600082815260208190526040902060010154610a1681610ba2565b6102e98383610c33565b6000805160206113df833981519152610a3881610ba2565b6001600160a01b03841660009081526002602052604090205460ff16610a705760405162461bcd60e51b815260040161035a906110ef565b6103e8831115610ad25760405162461bcd60e51b815260206004820152602760248201527f4f7261636c6552656769737472793a2072657075746174696f6e206f7574206f604482015266662072616e676560c81b606482015260840161035a565b6001600160a01b038416600090815260016020819052604082208082018054908790556002820180549294919392909190610b0e90849061115e565b90915550508315610b34576001826003016000828254610b2e919061115e565b90915550505b6001820154600283015460038401546040516001600160a01b038a16937f7422c3445cfc7c8b4138fbbf7c7fcf8c9f6a3adfcc49af7c8975676a27e4aa6093610b929387845260208401929092526040830152606082015260800190565b60405180910390a2505050505050565b610bac8133610c98565b50565b610bb982826105fa565b61036d576000828152602081815260408083206001600160a01b03851684529091529020805460ff19166001179055610bef3390565b6001600160a01b0316816001600160a01b0316837f2f8788117e7eff1d82e926ec794901d17c78024a50270940304540a733656f0d60405160405180910390a45050565b610c3d82826105fa565b1561036d576000828152602081815260408083206001600160a01b0385168085529252808320805460ff1916905551339285917ff6391f5c32d9c69d2a47ea670b442974b53935d1edc7fd64eb21e047a839171b9190a45050565b610ca282826105fa565b61036d57610caf81610cf1565b610cba836020610d03565b604051602001610ccb929190611328565b60408051601f198184030181529082905262461bcd60e51b825261035a9160040161139d565b60606102be6001600160a01b03831660145b60606000610d128360026113b0565b610d1d90600261115e565b67ffffffffffffffff811115610d3557610d3561118a565b6040519080825280601f01601f191660200182016040528015610d5f576020820181803683370190505b509050600360fc1b81600081518110610d7a57610d7a611132565b60200101906001600160f81b031916908160001a905350600f60fb1b81600181518110610da957610da9611132565b60200101906001600160f81b031916908160001a9053506000610dcd8460026113b0565b610dd890600161115e565b90505b6001811115610e50576f181899199a1a9b1b9c1cb0b131b232b360811b85600f1660108110610e0c57610e0c611132565b1a60f81b828281518110610e2257610e22611132565b60200101906001600160f81b031916908160001a90535060049490941c93610e49816113c7565b9050610ddb565b508315610e9f5760405162461bcd60e51b815260206004820181905260248201527f537472696e67733a20686578206c656e67746820696e73756666696369656e74604482015260640161035a565b9392505050565b600060208284031215610eb857600080fd5b81356001600160e01b031981168114610e9f57600080fd5b600060208284031215610ee257600080fd5b5035919050565b80356001600160a01b0381168114610f0057600080fd5b919050565b60008060408385031215610f1857600080fd5b82359150610f2860208401610ee9565b90509250929050565b600060208284031215610f4357600080fd5b610e9f82610ee9565b6020808252825182820181905260009190848201906040850190845b81811015610f8d5783516001600160a01b031683529284019291840191600101610f68565b50909695505050505050565b60005b83811015610fb4578181015183820152602001610f9c565b50506000910152565b60008151808452610fd5816020860160208601610f99565b601f01601f19169290920160200192915050565b60c081526000610ffc60c0830189610fbd565b602083019790975250604081019490945260608401929092521515608083015260a090910152919050565b60008060006040848603121561103c57600080fd5b61104584610ee9565b9250602084013567ffffffffffffffff8082111561106257600080fd5b818601915086601f83011261107657600080fd5b81358181111561108557600080fd5b87602082850101111561109757600080fd5b6020830194508093505050509250925092565b6000806000606084860312156110bf57600080fd5b6110c884610ee9565b925060208401359150604084013580151581146110e457600080fd5b809150509250925092565b60208082526023908201527f4f7261636c6552656769737472793a206e6f6465206e6f7420726567697374656040820152621c995960ea1b606082015260800190565b634e487b7160e01b600052603260045260246000fd5b634e487b7160e01b600052601160045260246000fd5b808201808211156102be576102be611148565b60006001820161118357611183611148565b5060010190565b634e487b7160e01b600052604160045260246000fd5b600181811c908216806111b457607f821691505b6020821081036111d457634e487b7160e01b600052602260045260246000fd5b50919050565b601f8211156102e957600081815260208120601f850160051c810160208610156112015750805b601f850160051c820191505b818110156112205782815560010161120d565b505050505050565b815167ffffffffffffffff8111156112425761124261118a565b6112568161125084546111a0565b846111da565b602080601f83116001811461128b57600084156112735750858301515b600019600386901b1c1916600185901b178555611220565b600085815260208120601f198616915b828110156112ba5788860151825594840194600190910190840161129b565b50858210156112d85787850151600019600388901b60f8161c191681555b5050505050600190811b01905550565b606081528360608201528385608083013760006080858301015260006080601f19601f870116830101905083602083015282604083015295945050505050565b7f416363657373436f6e74726f6c3a206163636f756e7420000000000000000000815260008351611360816017850160208801610f99565b7001034b99036b4b9b9b4b733903937b6329607d1b6017918401918201528351611391816028840160208801610f99565b01602801949350505050565b602081526000610e9f6020830184610fbd565b80820281158282048414176102be576102be611148565b6000816113d6576113d6611148565b50600019019056febb28eb1a0cfabcecf96003fab466159bc2e051e49d79baf049890044e9072440a2646970667358221220700783627ddd0848589b2f8a1fd19e2e2872f3a3cbe3bbd02fa90702ff74bb7764736f6c63430008130033","linkReferences":{}},"methodIdentifiers":{"DEFAULT_ADMIN_ROLE()":"a217fddf","MAX_REPUTATION()":"d213c0f2","REGISTRY_ADMIN_ROLE()":"bf584c4b","STARTING_REPUTATION()":"2c395bd2","deactivateNode(address)":"65814455","getActiveNodes()":"6b51e919","getNode(address)":"9d209048","getRegisteredNodeCount()":"29173a92","getRoleAdmin(bytes32)":"248a9ca3","grantRole(bytes32,address)":"2f2ff15d","hasRole(bytes32,address)":"91d14854","isRegistered(address)":"c3c5a547","registerNode(address,string)":"bb9b342d","renounceRole(bytes32,address)":"36568abe","revokeRole(bytes32,address)":"d547741f","supportsInterface(bytes4)":"01ffc9a7","updateReputation(address,uint256,bool)":"ec604e46"},"id":37}